:020000040800F2
:10000000000B00200902000835180008D51500086B
:1000100031180008A9060008752400080000000037
:10002000000000000000000000000000251E000885
:10003000810E000800000000551900089D200008EE
:1000400023020008230200082302000823020008FC
:1000500023020008230200082302000823020008EC
:1000600023020008230200082302000823020008DC
:1000700023020008230200082302000823020008CC
:1000800023020008230200080000000023020008E9
:1000900023020008230200082302000823020008AC
:1000A0002302000823020008230200081921000887
:1000B000A121000800000000230200080000000049
:1000C00023020008000000002302000823020008A9
:1000D0002302000823020008230200080000000099
:1000E00000000000000000002302000800000000E3
:1000F0000000000000000000000000000000000000
:100100002302000800000000000000002302000895
:1001100000000000000000000000000000000000DF
:1001200000000000000000000000000000000000CF
:1001300000000000000000000000000000000000BF
:1001400000000000000000000000000000000000AF
:1001500000000000000000000000000000F002F8B5
:1001600000F042F80AA090E8000C82448344AAF10F
:100170000107DA4501D100F037F8AFF2090EBAE80D
:100180000F0013F0010F18BFFB1A43F001031847CB
:100190000830000028300000103A24BF78C878C129
:1001A000FAD8520724BF30C830C144BF04680C607D
:1001B000704700000023002400250026103A28BFC5
:1001C00078C1FBD8520728BF30C148BF0B607047C9
:1001D000642900F06F80782900F0A8800020704723
:1001E0001FB51FBD10B510BD00F0F4F91146FFF7A3
:1001F000F7FF02F0DFF900F012FA03B4FFF7F2FFA5
:1002000003BC02F05CF90000094880470948004738
:10021000FEE7FEE7FEE7FEE7FEE7FEE7FEE7FEE7B6
:10022000FEE7FEE704480549054A064B7047000013
:10023000A12000085D01000800030020000B002041
:100240000007002000070020704700000FB4044999
:1002500010B503AA029800F08FF910BC5DF814FBEA
:100260000400002070B5044685690068C10601D508
:10027000302600E02026C00707D070BDD4E9012158
:1002800030469047206A401C20626D1EF6D570BD36
:1002900070B5044685690078C00707D170BDD4E900
:1002A000012120209047206A401C20626D1EF6D557
:1002B00070BD00002DE9F041064600241068752944
:1002C000314616A510D0AFF30080002802DA404274
:1002D00013A507E031688A0701D512A502E0490796
:1002E00004D511A5012401E0AFF3008000210A220A
:1002F00006F1240709E0B0FBF2FCB0FBF2F302FBCD
:100300001C00303078541846491C0028F3D123468D
:100310002A463046BDE8F04100F0D4B800000000A5
:100320002D0000002B0000002000000070B50446E6
:100330000D4621461068AFF300802188090502D5DB
:100340000F4A7A4402E00E4A7A440E32002104F148
:10035000240305E000F00F060009965D5E54491C79
:100360000028F7D120780023000704D5702D02D093
:1003700009B1022311322046BDE8704000F0A2B856
:10038000182E00002DE9F05F894604464FF0000A60
:10039000DFF824B1FB44C0F820A02046E16888477C
:1003A00000287DD0252806D0D4E901219047206A75
:1003B000401C2062F1E700255F462046E16888473F
:1003C0002028064607DB312E05D2B81910F8200C7C
:1003D00008B10543F1E7A80701D525F00405C4F8E5
:1003E0001CA00027C4F818A02A2E09D0304602F01D
:1003F0005FF838B304EB8708303EC8F8186019E09E
:1004000059F8041B204604EB87029161E168884794
:10041000012F064618D1E069002820DA25F02005D2
:100420001DE0D8F8180000EB800006EB40003038E3
:10043000C8F818002046E1688847064602F038F8F8
:100440000028EED1012F0AD02E2E08D12046E168D7
:1004500088477F1C0646022F45F02005C4DBA069B3
:10046000002803DA404245F00105A061E80701D009
:1004700025F01005A6B1A6F14100192802D82036B2
:1004800045F400654A463146204625604D46FFF753
:100490009FFE60B1012807D0ED1D25F0070000E0A8
:1004A00007E000F1080978E705F1040975E730462F
:1004B0007AE7206ABDE8F09FEE2D00007047704794
:1004C000704770472DE9F0470D469946924604461D
:1004D00000F124080168880604D5E06921F01001C4
:1004E000216000E00120A84201DD471B00E0002759
:1004F000A1697A1902EB0900081AA0612078C006E8
:1005000002D42046FFF7AEFE002608E0D4E9012120
:100510001AF806009047206A401C761C20624E455F
:10052000F4DB2078C0060AD52046FFF79BFE06E0E4
:10053000D4E9012130209047206A401C2062381EF7
:10054000A7F10107F4DC07E0D4E9012118F8050060
:100550009047206A401C2062281EA5F10105F3DCAB
:100560002046FFF795FE2078000602D50220BDE860
:10057000F0870120FBE70000074B70B50D467B4478
:1005800000F011F80446284600F020F810B14FF0B2
:10059000FF3070BD204670BD1720000001694A1C65
:1005A00002610878704700B58FB0CDE901310021B4
:1005B000059105497944CDE9031011466846FFF7D6
:1005C000E1FE0FB000BD0000E5FFFFFF007B00F083
:1005D00080007047754600F02BF8AE46050069466E
:1005E000534620F00700854618B020B5FFF71AFEE5
:1005F000BDE820404FF000064FF000074FF0000824
:100600004FF0000B21F00701AC46ACE8C009ACE8A4
:10061000C009ACE8C009ACE8C0098D46704710B508
:100620000446AFF300802046BDE81040FFF7E5BD6B
:10063000004870479C0200201CB50121880401F08D
:100640008BF94FF44060009001208DF804000320E6
:100650008DF8050000208DF8060001208DF80700B8
:100660006946044800F033FF4FF44061014800F050
:1006700094FF1CBD0004004870B50446032C01DD46
:10068000012070BD0748005D5E2804DA0548005D62
:10069000801DC5B200E064252946204601F016FC05
:1006A0000020EEE7C100002000BFFEE710B50446C1
:1006B00011A0FFF7CBFDBB2013490870A078FF28DD
:1006C0000CD10020FFF7D8FF0120FFF7D5FF022053
:1006D000FFF7D2FF0320FFF7CFFF0AE0A078012841
:1006E00007DBA078042804DCA178491EC8B2FFF714
:1006F000C3FF01F0C5FA10BD343835436D64A3BAA9
:10070000204164640D0A000024000020F0B5C3B04D
:1007100004463B4880783A49497840EA01263848FF
:100720000179C07841EA0027E079DE2865D13448B4
:100730004278217A33A0FFF789FD31488278617AC7
:100740003EA0FFF783FD2E48C278A17A49A0FFF7AB
:100750007DFD2B480279E17A54A0FFF777FD284808
:10076000017860A0FFF772FDAA208DF804006448AC
:10077000C0788DF80500624800798DF80600604861
:1007800040788DF807005E4880788DF808005C4856
:1007900040798DF8090005208DF80A00DE208DF8DB
:1007A0000B00174840788DF80C00154880788DF8BC
:1007B0000D001348C0788DF80E00114800798DF8AF
:1007C0000F000B2101A800F03BFB8DF810000D215C
:1007D00001A801F029FB4BA0FFF738FD002506E03A
:1007E00001A8415D4BA0FFF731FD681CC5B20D2D7E
:1007F000F6DB11A0FFF72AFD00BF43B0F0BD0000FB
:10080000250000207050726F546D702D3E4461744D
:10081000615B315D3D3078253032582D2D2D737957
:100820007374656D7365742E4D61634164645B30F0
:100830005D3D3078253032580D0A00007050726FDF
:10084000546D702D3E446174615B325D3D3078259E
:100850003032582D2D2D73797374656D7365742E38
:100860004D61634164645B315D3D307825303258C1
:100870000D0A00007050726F546D702D3E4461740B
:10088000615B335D3D3078253032582D2D2D7379E5
:100890007374656D7365742E4D61634164645B327E
:1008A0005D3D3078253032580D0A00007050726F6F
:1008B000546D702D3E446174615B345D3D3078252C
:1008C0003032582D2D2D73797374656D7365742EC8
:1008D0004D61634164645B335D3D3078253032584F
:1008E0000D0A000073797374656D7365742E736FF0
:1008F0006674616464723D3078253032580D0A00A8
:100900009401002053656E6444617461546F3438FF
:10091000353A0000253032582000000010B504465A
:1009200001200349087003A0FFF790FC10BD0000F0
:100930002D000020466C675F416464725F537461F0
:1009400072745F4F6B00000010B5044607A0FFF7FC
:100950007DFC207A0A49087001F0F8F901F090F95D
:100960000748017807A0FFF771FC10BD434D445FB5
:10097000436D645F416472725F446972740D0A0072
:100980002500002073797374656D7365742E736F21
:100990006674616464723D3078253032580D0A0007
:1009A00010B5044601A0FFF751FC10BD34383543A3
:1009B0006D64A3BA205377697463680D0A00000060
:1009C00010B504460AA0FFF741FCEE200C49087060
:1009D00060780C490978884208D1207A0F2805D11F
:1009E000607A0F2802D100200749087010BD00006E
:1009F000343835436D64A3BA4C6F67696E0D0A00D5
:100A000024000020250000202E00002010B5044600
:100A100001A0FFF71BFC10BD343835436D64A3BA49
:100A2000204E6578740D0A0010B5044601A0FFF74A
:100A30000DFC10BD343835436D64A3BA20506C6191
:100A4000790D0A0010B5044601A0FFF7FFFB10BDA9
:100A5000343835436D64A3BA20507265760D0A00B0
:100A600010B5044614A0FFF7F1FBC2201749087027
:100A7000A078FF2810D1217A002001F0FFF9217A17
:100A8000012001F0FBF9217A022001F0F7F9217A27
:100A9000032001F0F3F90BE0A078012808DBA0782F
:100AA000042805DC217AA278521ED0B201F0E6F9C2
:100AB00001F0E6F810BD0000343835436D64A3BA88
:100AC000205365744368616E6E0D0A002400002097
:100AD00070B5044617A0FFF7B9FBBE201A4908708D
:100AE000207A642800DD70BD257AA078FF2810D117
:100AF0002946002001F0EAF92946012001F0E6F933
:100B00002946022001F0E2F92946032001F0DEF92E
:100B10000BE0A078012808DBA078042805DCA17888
:100B2000491EC8B2294601F0D1F901F0A9F800BF69
:100B3000D9E70000343835436D64A3BA5365745661
:100B40006F6C0D0A0000000024000020F0B5C3B057
:100B5000074645A0FFF77AFB48488678012E45DB1B
:100B6000042E43DC701EC6B2AA208DF80400434850
:100B7000C0788DF80500414800798DF806003F489F
:100B800040788DF807003D4880788DF808003B4894
:100B900040798DF8090003208DF80A003748C079A4
:100BA0008DF80B003648805D8DF80C003548805D6F
:100BB0008DF80D000A2101A800F042F98DF80E0011
:100BC0000B2101A801F030F92FA0FFF73FFB002512
:100BD00006E001A8415D30A0FFF738FB681CC5B2F4
:100BE0000B2DF6DB24A0FFF731FB3BE0FF2E39D1C4
:100BF00009208DF80A002148C0798DF80B000024E7
:100C000007E01F48015D04F1080001AA1154601CAF
:100C1000C4B2042CF5DB002407E01A48015D04F19E
:100C20000C0001AA1154601CC4B2042CF5DB102185
:100C300001A800F005F98DF81400112101A801F0B8
:100C4000F3F811A0FFF702FB002506E001A8415DC3
:100C500011A0FFF7FBFA681CC5B2112DF6DB06A048
:100C6000FFF7F4FA43B0F0BD436D645F53746174F1
:100C700075735F51756572790D0A0000940100204B
:100C8000BD000020C100002053656E6444617461A2
:100C9000546F3438353A00002530325820000000B7
:100CA00010B5044601A0FFF7D1FA10BD3438354322
:100CB0006D64A3BA2053746F700D0A0010B504461A
:100CC00011A0FFF7C3FABC2013490870A078FF28D1
:100CD0000CD1002001F0B6F9012001F0B3F9022097
:100CE00001F0B0F9032001F0ADF90AE0A078012885
:100CF00007DBA078042804DCA178491EC8B201F003
:100D0000A1F900F0BDFF10BD343835436D64A3BABE
:100D1000205375620D0A00002400002070B50546BE
:100D20000024E9790EA0FFF791FA00BF0DE0E87901
:100D30000D4911F83410884205D10B4800EBC4006E
:100D4000416828468847601CC4B2074810F8340040
:100D500028B1054800EBC40040680028E7D170BD09
:100D6000307825780D0A00003000002070B5054667
:100D70000C466DB9012C05D120214FF0904000F0B8
:100D80000EFC34E020214FF0904000F006FC2EE0F5
:100D9000012D0DD1012C05D140214FF0904000F0E4
:100DA000FEFB24E040214FF0904000F0F6FB1EE0F7
:100DB000022D0DD1012C05D110214FF0904000F0F3
:100DC000EEFB14E010214FF0904000F0E6FB0EE047
:100DD000032D0CD1012C05D180214FF0904000F063
:100DE000DEFB04E080214FF0904000F0D6FB70BDA8
:100DF00000200E494979202910D10C4988790C49E5
:100E00000A7800F108018A4207D10121094A1170CC
:100E100007490978084A117000E070470021074A25
:100E20001170034A117000BFF7E700009401002021
:100E3000C7000020C5000020C6000020C800002018
:100E400030B502460B46002014E080210FE000F090
:100E5000800424B14406200E80F0310001E04406F5
:100E6000200E14780C400CB180F03100491000299C
:100E7000EDD1521C1C1EA3F10105EBB2E5D130BD32
:100E8000704700001CB501214FF4C02000F064FD44
:100E90002820009000208DF8040003208DF8050024
:100EA00000208DF8060001208DF8070069460A48E9
:100EB00000F00DFB0120009000208DF804000320BD
:100EC0008DF8050001208DF8070069464FF090402D
:100ED00000F0FDFA1CBD0000000400482DE9F041BF
:100EE00006460C4600274FF48071474800F055FB3A
:100EF0004FF40071444800F050FBC4F15700C4B2F5
:100F0000602000EA4410C4F38401084340F08007E5
:100F100039463EA0FFF79AF900252BE006F00100C4
:100F200028B14FF48071384800F039FB04E04FF4E9
:100F30008071354800F031FB022001F007FB4FF4CF
:100F40000071314800F02BFB052001F0FFFA4FF44F
:100F500080712D4800F021FB022001F0F7FA4FF4D8
:100F60000071294800F019FB052001F0EFFA761016
:100F7000681CC5B2022DD1DB00252BE007F0010073
:100F800028B14FF48071204800F009FB04E04FF4D1
:100F900080711D4800F001FB022001F0D7FA4FF4E8
:100FA0000071194800F0FBFA052001F0CFFA4FF468
:100FB0008071154800F0F1FA022001F0C7FA4FF4F1
:100FC0000071114800F0E9FA052001F0BFFA7F1026
:100FD000681CC5B2082DD1DB4FF480710A4800F0BF
:100FE000DEFA022001F0B2FA4FF40071064800F078
:100FF000D6FA052001F0AAFA4FF40071024800F079
:10100000CCFABDE8F081000000040048446174316E
:101010003D203078255820200D0A00002DE9F041B0
:1010200006460C4600274FF48051474800F0B5FAB9
:101030004FF40051444800F0B0FAC4F15700C4B274
:10104000602000EA4410C4F38401084340F08007A4
:1010500039463EA0FFF7FAF800252BE006F0010024
:1010600028B14FF48051384800F099FA04E04FF469
:101070008051354800F091FA022001F067FA4FF4F0
:101080000051314800F08BFA052001F05FFA4FF46F
:1010900080512D4800F081FA022001F057FA4FF4F8
:1010A0000051294800F079FA052001F04FFA761036
:1010B000681CC5B2022DD1DB00252BE007F0010032
:1010C00028B14FF48051204800F069FA04E04FF451
:1010D00080511D4800F061FA022001F037FA4FF408
:1010E0000051194800F05BFA052001F02FFA4FF487
:1010F0008051154800F051FA022001F027FA4FF410
:101100000051114800F049FA052001F01FFA7F1044
:10111000681CC5B2082DD1DB4FF480510A4800F09D
:101120003EFA022001F012FA4FF40051064800F096
:1011300036FA052001F00AFA4FF40051024800F097
:101140002CFABDE8F08100000004004844617432CC
:101150003D203078257820200D0A00002DE9F0414F
:1011600006460C46002701213F4800F016FA0221EE
:101170003D4800F012FAC4F15700C4B2602000EA02
:101180004410C4F38401084340F08007394637A077
:10119000FFF75CF8002526E006F0010020B10121F0
:1011A000314800F0FCF903E001212F4800F0F5F987
:1011B000022001F0CBF902212B4800F0F0F90520C4
:1011C00001F0C4F90121284800F0E7F9022001F0FC
:1011D000BDF90221244800F0E0F9052001F0B6F93C
:1011E0007610681CC5B2022DD6DB002526E007F07C
:1011F000010020B101211C4800F0D1F903E00121D8
:10120000194800F0CAF9022001F0A0F9022116489D
:1012100000F0C5F9052001F099F90121124800F00C
:10122000BCF9022001F092F902210F4800F0B5F953
:10123000052001F08BF97F10681CC5B2082DD6DBA4
:101240000121094800F0ABF9022001F07FF90221E9
:10125000054800F0A4F9052001F078F902210248C0
:1012600000F09BF9BDE8F08100040048446174334C
:101270003D203078257820200D0A00002DE9F0412E
:1012800006460C4600274FF48041474800F085F998
:101290004FF40041444800F080F9C4F15700C4B253
:1012A000602000EA4410C4F38401084340F0800742
:1012B00039463EA0FEF7CAFF00252BE006F00100EC
:1012C00028B14FF48041384800F069F904E04FF448
:1012D0008041354800F061F9022001F037F94FF400
:1012E0000041314800F05BF9052001F02FF94FF47F
:1012F00080412D4800F051F9022001F027F94FF408
:101300000041294800F049F9052001F01FF9761045
:10131000681CC5B2022DD1DB00252BE007F00100CF
:1013200028B14FF48041204800F039F904E04FF42F
:1013300080411D4800F031F9022001F007F94FF417
:101340000041194800F02BF9052001F0FFF84FF497
:101350008041154800F021F9022001F0F7F84FF420
:101360000041114800F019F9052001F0EFF87F1055
:10137000681CC5B2082DD1DB4FF480410A4800F04B
:101380000EF9022001F0E2F84FF40041064800F0A7
:1013900006F9052001F0DAF84FF40041024800F0A8
:1013A000FCF8BDE8F081000000040048446174349A
:1013B0003D203078257820200D0A000030B5044605
:1013C0004FF4702000F072F80546B5B90C4800697A
:1013D00040F002000A49086108464461006940F093
:1013E000400008614FF4702000F060F805460448A2
:1013F000006920F0020002490861284630BD000063
:101400000020024000200A49C96801F0010109B129
:1014100001200CE00649C96801F0100109B1022061
:1014200005E00349C96801F0040101B103207047D8
:10143000002002400348006940F080000149086133
:10144000704700000020024070B504460D464FF47E
:10145000702000F02BF806468EB90A48006940F06B
:1014600001000849086125604FF4702000F01EF863
:1014700006460448006920F0010002490861304630
:1014800070BD0000002002400548006900F08000A7
:1014900020B1044802494860034848607047000092
:1014A0000020024023016745AB89EFCD00B503461C
:1014B000012200BFFFF7A6FF02465B1E012A01D1F1
:1014C000002BF7D1012A00D10422104600BD30B50F
:1014D0000A46002100BF3AE001248C4013682340F3
:1014E000A3B31379012B02D01379022B16D1836891
:1014F0004D000324AC40A343836053794C00A340C8
:10150000846823438360838801248C40A3438380C1
:10151000838894798C40A4B223438380C3684D00B0
:101520000324AC40A343C360D3794C00A340C468F8
:101530002343C36003684D000324AC40A34303600E
:1015400013794C00A340046823430360491C10290D
:10155000C2D330BDF0B5002300244D07ED0E02FAD2
:1015600005F3CE1000F1200555F826504E07F70E72
:101570000F26BE40B543CF1000F1200646F8275095
:10158000CE1000F1200555F8265045EA0304CE1090
:1015900000F1200545F82640F0BD018570478161C6
:1015A0007047000000200A4A1188094A0832118851
:1015B0000846921C118801EB0040921C128891B2DF
:1015C0000844034A0F32128891B208447047000061
:1015D000E0F7FF1F00BFFEE71CB50121880400F003
:1015E000BBF90320009001208DF8040003208DF842
:1015F000050000208DF8060001208DF807006946DF
:101600000348FFF764FF03210148FFF7C8FF1CBD33
:10161000000400481CB50121880400F09DF94FF436
:101620004070009001208DF8040003208DF8050023
:1016300000208DF8060001208DF807006946044857
:10164000FFF745FF4FF440710148FFF7A8FF1CBDAD
:10165000000400481CB50121880400F07DF94FF416
:101660004050009001208DF8040003208DF8050003
:1016700000208DF8060001208DF807006946044817
:10168000FFF725FF4FF440510148FFF788FF1CBDCD
:10169000000400481CB50121880400F05DF94FF4F6
:1016A0004040009001208DF8040003208DF80500D3
:1016B00000208DF8060001208DF8070069460448D7
:1016C000FFF705FF4FF440410148FFF768FF1CBDDD
:1016D000000400481CB50121480400F03DF94FF416
:1016E0001940009001208DF8040003208DF80500BA
:1016F00000208DF8060001208DF8070069464FF0A4
:101700009040FFF7E4FE4FF419414FF09040FFF78F
:1017100044FF1CBD10B517A0FEF798FDFF201E4921
:101720000870FFF73FFF0446200E1B494870210C4C
:1017300019488170210AC170047100F043FB1648FA
:10174000017816A0FEF782FD1348417818A0FEF735
:101750007DFD114881781EA0FEF778FD0E48C17806
:1017600023A0FEF773FD0C48017929A0FEF76EFD5A
:1017700010BD00002A2A2A2A2A2A2A2A2A2A2A2AA4
:101780002A2A2A2A2A2A2A2A2A2A2A2A2A2A2A2AB9
:101790002A2A2A2A2A0D0A0025000020343835205A
:1017A000416464723A20307825580D0A0000000028
:1017B0002D2D2D73797374656D7365742E4D616372
:1017C0004164645B305D3D3078253032580D0A004D
:1017D0002D2D2D73797374656D7365742E4D616352
:1017E0004164645B315D3D3078253032580D0A002C
:1017F0002D2D2D73797374656D7365742E4D616332
:101800004164645B325D3D3078253032580D0A000A
:101810002D2D2D73797374656D7365742E4D616311
:101820004164645B335D3D3078253032580D0A00E9
:1018300000BFFEE77047000070B5002100220023C2
:10184000C478002C4DD02C4C246804F4E064B4F52A
:10185000E06F02D100BF042326E0274C246804F483
:10186000E064B4F5C06F02D1012203231CE0224CD6
:10187000246804F4E064B4F5A06F02D102220223CC
:1018800012E01D4C246804F4E064B4F5806F02D1CA
:101890000322012308E0184C246804F4E064B4F542
:1018A000407F01D1042200234478C2F1040504FAE8
:1018B00005F18478C3F104060F2535412C402143FE
:1018C00009010E4C0678A155047804F01F05012487
:1018D000AC4005786D11AD0005F1E025C5F800417B
:1018E00009E0047804F01F040125A540044C0678A3
:1018F000761144F8265070BD0CED00E000E400E0E5
:1019000080E100E002490143024A11607047000093
:101910000000FA050CED00E01CB50121480400F0C0
:101920001BF8F020009001208DF8040000208DF8B5
:10193000060001208DF8070003208DF80500694698
:101940004FF09040FFF7C3FDF0214FF09040FFF7BC
:1019500026FE1CBD7047000029B1064A52690243A9
:10196000044B5A6104E0034A52698243014B5A61B5
:10197000704700000010024029B1064AD2690243B4
:10198000044BDA6104E0034AD2698243014BDA6115
:10199000704700000010024029B1064A92690243D4
:1019A000044B9A6104E0034A92698243014B9A61B5
:1019B0007047000000100240F0B500210022002412
:1019C000002500260023574F7F6807F00C0121B146
:1019D000042905D0082928D105E0534F076027E0E6
:1019E000514F076024E04F4F7F6807F470124D4F4E
:1019F0007F6807F00064E70EC7EB071404EB92471B
:101A0000BA1C484F7F6807F480351DB9474F5743CC
:101A1000076009E0434FFF6A07F00F077E1C424F43
:101A2000B7FBF6F75743076002E03F4F076000BF80
:101A300000BF3C4F7F6807F0F00109093C4F7B5C19
:101A40000768DF404760374F7F6807F4E061090AA5
:101A5000384F7B5C4768DF408760324F7F6807F410
:101A60006051C90A334F7B5C4768DF40C7602D4F28
:101A70003F6B07F48077B7F5807F02D02E4F076168
:101A80001FE0284F7F68C7F3813131B1012908D0A9
:101A900002290AD0032913D10EE0C7687F08076125
:101AA0000EE0C768BF0807610AE04FF0060CC76880
:101AB000B7FBFCF7076103E0C768FF08076100BFD9
:101AC00000BF184F3F6B07F04007402F03D048F28C
:101AD0001207476102E04FF400474761114F3F6B27
:101AE00007F0030717B9C768876119E00D4F3F6B0F
:101AF00007F00307012F02D10768876110E0094F43
:101B00003F6B07F00307022F02D1BF03876107E095
:101B1000044F3F6B07F00307032F01D1024F87618A
:101B2000F0BD00000010024000127A0000093D00E4
:101B30000A0000201A000020809FD5002DE9F04106
:101B400004460026314880783049497840EA012728
:101B50002E480179C07841EA00282D4801782D48A7
:101B6000FFF76EF900284CD12BA0FEF76FFB002584
:101B700006E02848415D2BA0FEF768FB681CC5B253
:101B8000234800788542F4DB28A0FEF75FFB284855
:101B90000078012829D1E079DF2835D125A0FEF78A
:101BA00055FB207A1949497888422DD1617A174826
:101BB0008078814228D1A17A1448C078814223D10B
:101BC000E17A1248007981421ED11FA0FEF73EFB48
:101BD00060780E49087000F0B9F800F051F80B4831
:101BE00001781CA0FEF732FB0EE060780749097807
:101BF000884202D06078FF2806D12046FFF78EF891
:101C000002E01BA0FEF722FBBDE8F08125000020CA
:101C1000C60000209401002055617274343835529A
:101C200053563A0025303258200000000D0A0000BB
:101C30002D0000204765745F436D645F41646472EA
:101C40005F536176650D0A004D4143204F4B0D0AED
:101C50000000000073797374656D7365742E736F83
:101C60006674616464723D3078253032580D0A0024
:101C7000D0A3D1E9BACDB4EDCEF30D0A0000000037
:101C800030B5C3B0AA208DF804002748C0788DF87D
:101C90000500254800798DF80600234840788DF826
:101CA0000700214880788DF808001F4840798DF89A
:101CB00009001D4880798DF80A00072405E01A48BC
:101CC000005D01A90855601CC4B217488079C01D89
:101CD000A042F4DC15480078801EC1B201A8FFF7CD
:101CE000AFF812490978491E01AA50540F480078EC
:101CF000401CC1B201A800F097F80DA0FEF7A6FAAB
:101D0000002506E001A8415D0DA0FEF79FFA681CC2
:101D1000C5B206480078401C8542F3DB0AA0FEF7F6
:101D200095FA43B030BD000094010020C6000020A9
:101D300053656E6444617461546F3438353A000001
:101D400025303258200000000D0A000070B5FFF762
:101D50009BFB1748FFF732FB154D164801782846C4
:101D6000FFF772FB2D1D002407E01348015D284694
:101D7000FFF76AFB2D1D601CC4B2042CF5DB0024A8
:101D800007E00E48015D2846FFF75EFB2D1D601C35
:101D9000C4B2042CF5DB0648E030006808498842EC
:101DA00003D00348E030FFF74FFBFFF743FB70BD64
:101DB000007B000825000020BD000020C10000209D
:101DC00001EFCDAB124A1268124B9A421FD1104953
:101DD000E0390A78104B1A70091D002005E00A78D6
:101DE0000E4B1A54091D421CD0B20428F7DB002008
:101DF0000BE00A780A4B1A541A46125C642A01DD79
:101E000032221A54091D421CD0B20428F1DB70475B
:101E1000E07B000801EFCDAB25000020BD000020D5
:101E2000C10000207047000070B505460E46102125
:101E30001048FFF7B4FB00240DE000BF0E48006817
:101E400000F040000028F9D0295D0B481C3800F054
:101E5000F1F9601CC4B2B442EFDB00BF0648006871
:101E600000F040000028F9D010210248FFF795FB50
:101E700070BD0000000400481C44004070B50446DA
:101E80000D46032C01DC012D01DD012070BD2A4629
:101E9000214608A0FEF7DAF90B48005DA84203D0FE
:101EA00009480555FFF752FF29462046FEF75EFF19
:101EB0000020EBE763683A2025642C205374613AD4
:101EC0002025640D0A000000BD0000202DE9FF5F01
:101ED00004468946032C02DCB9F1640F03DD0120BE
:101EE00004B0BDE8F09F2A48005D484504D028486A
:101EF00000F80490FFF72AFF484601F0D7F8834620
:101F000001F0A8F80022234BCDE9000100F028FDE4
:101F10000022214BCDE9020100F0A6FF0746002276
:101F20001E4B00F0A3FE054600F072FE00F0FF0A13
:101F3000BAF1570F01DD4FF0570A53464A46214682
:101F400017A0FEF783F934B9504600F095FA5046D1
:101F500000F092FA19E0012C06D1504600F093FAF5
:101F6000504600F090FA10E0022C06D1504600F0E6
:101F700091FA504600F08EFA07E0032C05D1504646
:101F800000F08FFA504600F08CFA0020A8E700001D
:101F9000C1000020000059400000F03F00C0554043
:101FA00063683A2025642C20566F6C3A2025643AE9
:101FB00025640D0A000000000CB50020019000907F
:101FC0001B4840681A49486008464068486008460F
:101FD000406840F480604860084640681549084001
:101FE000134948600846406813490843104948604F
:101FF0000846006840F08070086000BF0C48006828
:1020000000F000700028F9D00948406820F0030073
:10201000074948600846406840F00200486000BF39
:102020000348406800F00C000828F9D10CBD0000FE
:1020300000100240FFFFC2F70000040810B5FFF7D0
:10204000BBFF10BD70B50446032C01DD012070BD3F
:102050000748005D062804DD0548005D801FC5B205
:1020600000E0002529462046FFF730FF0020EEE77C
:10207000C1000020042808D14FF0E021096941F097
:1020800004014FF0E022116107E04FF0E0210969FF
:1020900021F004014FF0E022116170477047000009
:1020A00010B51948006840F001001749086008465B
:1020B00040681649084014494860084600681449B9
:1020C0000840114908600846006820F48020086034
:1020D000084640680F4908400B4948600846C06AF6
:1020E00020F00F00C8620846006B40F2431188439D
:1020F000054908630846406B20F001004863002052
:102100008860FFF79BFF10BD001002400C003F08E5
:10211000FFFFF6FEFFFFC0F710B51D491D4800F098
:1021200098F810B31B4800F080F8C4B21A48008831
:1021300000F40040C8B91848008800F4804060B13D
:102140000A2C03D000201449088020E0124800889F
:1021500040F400401049088019E00D2C06D10E48CB
:10216000008840F480400C49088010E00A4800884C
:10217000C0F30D0009490C5407480088401C06496B
:10218000088008460088C72801DD0020088010BDAF
:10219000050105000038014008000020CC000020A7
:1021A00010B51749174800F054F838B3154800F037
:1021B0003CF8C4B214480078E0B91448007838B943
:1021C000AA2C05D10120114908700020104908707F
:1021D0000E48007801280DD10D4801780078401C88
:1021E0000B4A10700B484454104600780B2801DB52
:1021F000FEF7FEFD0249034800F00EF810BD000096
:102200000501050000440040C5000020C800002072
:10221000C70000209401002010B5002200230A0C02
:10222000012404FA02F3036210BD0146888CC0F356
:1022300008007047C1F308020285704721B10268A7
:1022400042F00102026003E0026822F00102026033
:10225000704730B502460B46002400210025C3F329
:102260000725D9B2012000FA01F1012D02D1106831
:10227000014006E0022D02D15068014001E0906863
:1022800001401C0C012000FA04F4D069044011B193
:102290000CB1012030BD0020FCE7F0B5034600255D
:1022A0000020184601F47F45CCB2B5F5407F01D13E
:1022B000083003E0B5F5007F00D1001D2AB10668A3
:1022C0000127A7403E43066004E007680126A640B8
:1022D000B7430760F0BD00002DE9F04188B0044627
:1022E0000D460027B8460026206820F00100206037
:1022F000666826F44056A86806436660266841F280
:102300000C608643E9686868084329690843064306
:102310002660A66826F4407668690643A66001A890
:10232000FFF74AFB1A48844202D1DDF81C8001E025
:10233000DDF80C80206800F4004060B14FEA4800EE
:102340002968B0FBF1F74FEA48002968B0FBF1F2C9
:1023500001FB120607E02868B8FBF0F72868B8FB15
:10236000F0F100FB11862868B6EB500F00D37F1CFC
:10237000206800F4004038B1C7F342064FF6F07110
:1023800007EA010040EA0607A78108B0BDE8F0812E
:102390000038014010B58AB0044601214804FFF717
:1023A000EBFA01214804FFF7D7FA012202214FF08E
:1023B0009040FFF7CFF8012203214FF09040FFF744
:1023C000C9F80C20089003208DF8250002208DF814
:1023D000240000208DF8260001208DF8270008A990
:1023E0004FF09040FFF773F80294002003900490A0
:1023F000059007900C20069002A91B48FFF76CFF80
:1024000001221A491848FFF748FF01211648FFF733
:1024100015FF1C208DF8040003208DF80500022014
:102420008DF8060001208DF8070001A8FFF704FAD7
:1024300001218804FFF790FA1020089001208DF800
:10244000240003208DF8250000208DF826000120AF
:102450008DF8270008A90648FFF739F8102104482D
:10246000FFF79BF80AB010BD0044004005010500CD
:102470000004004800BFFEE710B5044621460020D6
:10248000FEF72CFD10BD10B5044621460020FEF7D6
:10249000C5FD10BD10B5044621460020FEF75EFEC6
:1024A00010BD10B5044621460020FEF7E7FE10BD22
:1024B00030380A2801D201207047002070470146B9
:1024C00000BF704710B504466FF00400FFF7D2FD5F
:1024D000E11704EB5171C1F3C701074A11701046AF
:1024E000007800EB4001C1EBC0104FF6FF7101EA2C
:1024F000C0000249088010BD00000020020000203A
:102500000146114A12884A434FF0E0235A610022E3
:102510009A611A46126942F001021A6100BF4FF037
:10252000E022106900F001021AB100F48032002AA2
:10253000F5D04FF0E022126922F001024FF0E023C3
:102540001A6100229A617047020000200146114A78
:1025500012784A434FF0E0235A6100229A611A46EA
:10256000126942F001021A6100BF4FF0E0221069C7
:1025700000F001021AB100F48032002AF5D04FF0C9
:10258000E022126922F001024FF0E0231A610022DA
:102590009A6170470000002000BF054A126802F0EF
:1025A0004002002AF9D0C2B2014B0C331A807047A6
:1025B0001C3801404820FFF785FFFEF763FC4FF40D
:1025C0008060FFF79FF94FF4E13000F0CFF84FF44F
:1025D0001650FFF7DFFEFFF79DF8FEF72DF8FFF727
:1025E00079F8FEF7F9FFFFF715F8FFF733F8FFF773
:1025F00051F8FFF791F94FF4FA70FFF781FF0024CB
:102600000BE00948015D2046FFF738FC0748015DF3
:102610002046FFF75BFC601CC4B2042CF1DB01E038
:1026200000F006F8FCE70000BD000020C10000201B
:102630003EB53E48007800286BD03D48007840BB4E
:102640003C49497809B9012101E03A4949780846ED
:10265000FFF756FF3749897809B9012101E035496B
:1026600089780846FFF74CFF3249C97809B901213A
:1026700001E03049C9780846FFF742FF2D49097942
:1026800009B9012101E02B4909790846FFF738FF14
:1026900002E06420FFF734FF2548007838B126486F
:1026A00001680068401C244A1060322931D923A2F5
:1026B00007CA8DE807001F4800788DF80300042042
:1026C0008DF8040020208DF80500EE208DF807001D
:1026D0000A216846FEF7B4FB8DF80A000B21684614
:1026E000FFF7A2FB18A0FDF7B1FD002406E01DF8DE
:1026F000041019A0FDF7AAFD601CC4B20B2CF6DB78
:1027000017A0FDF7A3FD01200B49086008490870D8
:1027100000BF1448007838B1134D2846FFF70EFA71
:1027200000201049087000BF3EBD00002E000020B0
:10273000BC00002025000020B8000020AAFF0100F6
:10274000002003EE0000000053656E644461746174
:10275000546F3438353A00002530325820000000DC
:102760000D0A0000C50000209401002010B58AB0B9
:10277000044601218804FFF7EFF801218803FFF7E1
:102780000BF9002206211F48FEF7E4FE0022072174
:102790001C48FEF7DFFEC020089003208DF82500BE
:1027A00002208DF8240000208DF8260001208DF8ED
:1027B000270008A91348FEF78AFE02940020039020
:1027C0000490059007900C20069002A90E48FFF790
:1027D00083FD01210C48FFF731FD01220B490A4816
:1027E000FFF75BFD1B208DF8040003208DF805002A
:1027F0008DF8060001208DF8070001A8FFF71CF8EE
:102800000AB010BD00040048003801400501050071
:1028100010B591EA030F48BF83F0004300F13883FD
:10282000841A71EB030C05D2121943EB0C03001B45
:1028300061EB0C01DFF824E14FEA1154A4EB135CC7
:102840001EEA430F18BF9EEA445F73D023EA0E03CB
:10285000DCF1200E21EA045143F4801332D322FA32
:102860000CFE10EB0E0023FA0CFE41EB0E01CCF136
:10287000200E03FA0EFE10EB0E0051F10001B1F52F
:10288000801FCCF1200E32D201EB045112FA0EF26D
:10289000BDE8104058BF7047401C38BF5FEA420295
:1028A00018BF7047002814BF20F0010041F100015B
:1028B0004FEA410313F5001F38BF7047A1F1C04133
:1028C00000F0CCBA012A43EB0302ACF1200CDCF19E
:1028D0001F0E32BF4FF0000E23FA0CF310EB030073
:1028E00041EB0451B4EB115FD0D0A1EB045101F5E1
:1028F000801149085FEA300001EB04510ED350F11A
:10290000000038BF12FA0EFE08D1BDE81040C9E73A
:10291000401C38BF5FEA4202CAD1C3E7BDE810409D
:102920004FEA410313F5001F38BF7047A1F1C041C2
:1029300000F094BA9EEA445F08D011EA5E0FBDE849
:10294000104004BF01F0004100207047BDE8104076
:1029500070B500F035FA00BF64FBBE3E0000E0FF3A
:102960002DE9C04130B4DFF8A0C23CEA111418BF11
:102970003CEA131400F0EC8081EA03051CEA111410
:1029800044EAD57418BF1CEA131500F0C780A4EB05
:1029900005044FF0004545EAC12145EAC32341EA59
:1029A000505143EA525304F17F74994204F50034C4
:1029B0004FEAC0204FEAC22208BF904200F09C803C
:1029C0004FEA13650FF24016765D4FEA134506FB9A
:1029D00005F7C7F1807706FB07F74FEAD737A7FB64
:1029E00003687642C8F58038A7FB06CE38BFA8F149
:1029F000010807FB08E64FF0000EA6FB028CE6FB81
:102A000003CEDCF1000CCEF1004E38BFAEF1010E6A
:102A1000A6FB0C584FF000074FF00005E6FB0E87B1
:102A2000A1FB08C6A0FB07CE16EB0E0645F100057C
:102A3000E1FB076515F1E04E7EBFA4F580345FEA47
:102A400046066D4116F1800745F100054FEA17274C
:102A50004FEA066647EA0567A6F1DE46B6F1805FF3
:102A60004FEA15251FD9384624F0010C05EBC47137
:102A7000BCF1FE6F01EB0C1102D8F0BCBDE8008187
:102A800024425CBF01F5801E9EEAC47F02D4F0BCE4
:102A9000BDE80081244238D4F0BCA1F1C041BDE8BA
:102AA000004100F0DBB94FEAD22242EA43524FEA3A
:102AB000D323A7FB02864FEAD02040EA415007FB10
:102AC00003661EEA0E0F4FEAD12105FB026658BFCE
:102AD000A6EB0056B6EB00564FEA520E4EEAC37E06
:102AE00018EB0E0E56EB530EBDD518EB02085E41E7
:102AF0007F1C55F10005B6E74FF480154FF0000735
:102B00004FF000064FF00008ADE7F0BC4FF00000BA
:102B100001F1C04101F00041BDE8008111EA0C1F44
:102B20000CEA131500D00CE013EA0C1F00F025800E
:102B30004FF00000F0BC81EA030101F00041BDE864
:102B40000081F0BCBDE8004181EA030100F086B9D4
:102B5000F0BCBDE8004170B500F032F9097EFC3EE2
:102B600000F007B881EA03014FF0000001F00041D6
:102B7000704781EA030100F071B9F0BCBDE8004183
:102B80004FF0000021497047FFFDFBF9F7F5F4F223
:102B9000F0EEEDEBE9E8E6E4E3E1E0DEDDDBDAD8F8
:102BA000D7D5D4D3D1D0CFCDCCCBCAC8C7C6C5C456
:102BB000C2C1C0BFBEBDBCBBBAB9B8B7B6B5B4B36D
:102BC000B2B1B0AFAEADACABAAA9A8A8A7A6A5A458
:102BD000A3A3A2A1A09F9F9E9D9C9C9B9A9999981C
:102BE0009797969595949393929191908F8F8E8EBF
:102BF0008D8C8C8B8B8A898988888787868585844C
:102C000084838382828181800000FF070000F87F37
:102C10004FEA1153A3F58063D3F11E03A8BFD3F18C
:102C2000200C08DB4FF0004242EAC12252EA505227
:102C300032FA03F0704709420BD4102BC4BF0020B6
:102C4000704703F5787CBCF1FF3F05D04FF0FF30B3
:102C500070474FF00000704770B500F0B1F800BF4A
:102C60004992248000207047F0E70000DFF848C157
:102C700070B51CEA111E1EBF1CEA13159EEA0C0F4C
:102C800095EA0C0F00F06F8081EA030423EA4C13ED
:102C90004EEAD47E21EA4C1141F4801143F48013B2
:102CA000AE44A1FB024CA0FB0365AEF17F7E36195A
:102CB00055EB0C05A1FB034C4CF10003A0FB021CDF
:102CC00016EB0C06654153F10003094218BF46F0AC
:102CD000010613F4007F0BD14FEA03314FEA0530B0
:102CE000340341EA155140EA16506FF003020AE03E
:102CF0004FEAC3214FEAC520F40241EA555140EAA8
:102D000056506FF0020202EB2E4201EB025585EAAB
:102D1000CE710AD05FEA440C18BF24F0004450F191
:102D2000000041F1000120EAD47040F2FE7C6245CF
:102D300000D270BDA84214BF4FF080444FF0404411
:102D4000002E08BF0024BEF1806FA8BFA1F1C041D2
:102D5000BDE8704080F282804FF0000001F1C04178
:102D600001F0004170479EEA0C0F0CEA131518BFE2
:102D700095EA0C0F06D04FF0000081EA030E0EF02A
:102D8000004170BD00F01CF88900013E00F007B85A
:102D900000F009B84FEA430C5FEA5C5C08D081EAB6
:102DA000030100F05BB84FEA410C5FEA5C5CF6D1CE
:102DB0004FF00000014970470000FF070000F87F56
:102DC0000EF1020E2EF0030E5EF8046B364205D4AF
:102DD000012A43EB030515F5001F12D8012841EB2A
:102DE000010C1CF5001F0CD80ED14FEAD17C15F553
:102DF000001F0CEB4C0C0CF1020C08BF4CEBD37C0D
:102E000004E04FF0080C01E04FEAD37C0CEB4C05DA
:102E100026FA05F606F00706B6F1040C06D20EEB0C
:102E2000860CBDE870404CF0010C6047DFE80CF008
:102E3000090B02024FF000414FF00000A1F5002104
:102E400070BD19461046012851EB010418BFD4F596
:102E5000001484BF002001F0004170BD0808A0F5F7
:102E600000114FEA3101704791EA030F10B581F06C
:102E700000413FF5D5AC83F0004300F009B80000F5
:102E800010B591EA030F48BF83F000433FF5C8AC8B
:102E9000841A71EB030C07D212198CF0004C43EB2F
:102EA0000C03001B61EB0C01DFF8A4E14FEA1154A5
:102EB000A4EB135C1EEA430F18BF9EEA445F00F0C8
:102EC000B08023EA6E03524221EA0451C3EB6E0341
:102ED00038BF5B1EDCF1200E25D322FA0CFE10EB6E
:102EE0000E0043FA0CFE41EB0E01CCF1200E03FA6A
:102EF0000EFE10EB0E0051F10001CCF1200E29D492
:102F000012FA0EF201EB0451BDE8104058BF7047B1
:102F1000401C1CBFB2F1004F704700280CBF491C79
:102F200020F00100704712EB020E43EB030218BFC2
:102F30004FF0010E4EEA4202ACF1200CDCF11E0E05
:102F400054D943FA0CFE10EB0E0051F1FF31CCF1D5
:102F50001E0ED5D50EF1010E12FA0EFE404141EBC8
:102F6000010101EB445C5FEA5C5C10D910EBDE70A0
:102F700001EB045138BFBEF1004FBDE8104018BF4F
:102F8000704700280CBF491C20F00100704730D268
:102F90004FEAD42C11F5001124F400641BD0B1FACF
:102FA00081F20B3AA41AA41ED2F12003914030FA08
:102FB00003F31943904001EBCC71002C01EB045159
:102FC000BDE81040A8BF704701F1C0414FF00000BC
:102FD00001F000417047B0FA80F310FA03F100D11C
:102FE00010BDE41A173C4805C90AE4E701EB045197
:102FF00010BD491001EB0451BDE810404FEA30000C
:1030000002E04FF0000170474A0008BF0042F8D0CC
:10301000B2F5001F28BF704701F000414FF00000DB
:1030200070479EEA445F07D011EA5E0FBDE810408A
:1030300004BF002100207047BDE8104070B5FFF7C5
:10304000BFFE00BF40DFF63E83F0004110467047F0
:103050000000E0FF43004FEAD30C4FEA3C0C434032
:103060001FBF40070CF1605113F0FE4F70471CF07A
:10307000006F03D100200CF0004170470CF00043BA
:1030800043EA507010B540EACC0000F022F800BFCF
:10309000000000924FEA0001FFF7E0BE4FF0004150
:1030A0004FF00000A1F5002170470000B0FA80F356
:1030B00010FA03F2C3F19D030AD0D90501EB1220E7
:1030C000530638BF704700F1010008BF20F001002F
:1030D00070470EF1020E2EF0030E5EF8044B2442F0
:1030E00004D44FEA4102B2F17F4F11D84FEA4003B6
:1030F000B3F17F4F0CD80ED14FEAD07CB2F17F4FA5
:103100000CEB4C0C0CF1020C08BF4CEBD17C04E036
:103110004FF0080C01E04FEAD17C0CEB4C0324FA91
:1031200003F404F00704B4F1040C06D20EEB840C93
:10313000BDE810404CF0010C6047DFE80CF00708D8
:1031400002024FF00040A0F5800010BD084642008A
:1031500018BFD2F1807288BF00F0004010BD30313E
:1031600032333435363738394142434445464030AE
:103170005800303132333435363738396162636460
:103180006566403078000400000800000000000080
:103190000002000100001000B8310008000000200B
:1031A000CC0000009801000884320008CC00002008
:1031B000340A0000B4010008000000000000000014
:1031C00000000000000000000000010203040607E8
:1031D00008090000000001020304000000000000D4
:1031E0000000000000000100BD000000A10900086F
:1031F000BB000000AD060008BC000000BD0C0008CC
:10320000BA0000000D0A0008B7000000290A0008F3
:10321000B8000000A10C0008BE000000D10A0008A0
:10322000DD0000001D090008DE0000000D07000899
:10323000B50000004D0B0008B60000004909000869
:10324000B9000000450A0008C2000000610A000839
:10325000EE000000C10900080000000000000000AE
:10326000555566667777000000FC010800000000F5
:103270000000000000010101013232323200000082
:04328000000000004A
:040000050800015D91
:00000001FF
